:100000000C942A000C9434000C9434000C943400AA
:100010000C9434000C9434000C9434000C94340090
:100020000C9434000C9434000C9434000C94340080
:100030000C9434000C9434000C9434000C94340070
:100040000C9434000C9434000C9434000C94340060
:100050000C94340011241FBECFE5D4E0DEBFCDBF29
:100060000E943D000C9467000C94000083B78A66E0
:1000700083BFBB9A08958CBF08950E94360084E127
:100080000E943B00C0E080E08F3FC1F0811102C0C0
:10009000C13011F0C11115C0C1E0C80F0E943B0072
:1000A0008C2FC0E040E95FE561E070E00000415066
:1000B000510961097109D1F78F3F41F7C11101C0A1
:1000C000C1E0DFEFD80F0E943B008D2FEBCFF894FB
:0200D000FFCF60
:00000001FF
